{
  "contractName": "Notes",
  "abi": [
    {
      "constant": true,
      "inputs": [],
      "name": "getTest",
      "outputs": [
        {
          "internalType": "uint256",
          "name": "",
          "type": "uint256"
        }
      ],
      "payable": false,
      "stateMutability": "view",
      "type": "function"
    },
    {
      "constant": false,
      "inputs": [
        {
          "internalType": "string",
          "name": "_testc",
          "type": "string"
        }
      ],
      "name": "setTest",
      "outputs": [],
      "payable": false,
      "stateMutability": "nonpayable",
      "type": "function"
    },
    {
      "constant": true,
      "inputs": [
        {
          "internalType": "string",
          "name": "_username",
          "type": "string"
        }
      ],
      "name": "isExistUsername",
      "outputs": [
        {
          "internalType": "bool",
          "name": "",
          "type": "bool"
        }
      ],
      "payable": false,
      "stateMutability": "view",
      "type": "function"
    },
    {
      "constant": false,
      "inputs": [
        {
          "internalType": "string",
          "name": "_username",
          "type": "string"
        }
      ],
      "name": "createUser",
      "outputs": [],
      "payable": false,
      "stateMutability": "nonpayable",
      "type": "function"
    },
    {
      "constant": true,
      "inputs": [],
      "name": "getUserCount",
      "outputs": [
        {
          "internalType": "uint256",
          "name": "",
          "type": "uint256"
        }
      ],
      "payable": false,
      "stateMutability": "view",
      "type": "function"
    },
    {
      "constant": false,
      "inputs": [
        {
          "internalType": "string",
          "name": "_username",
          "type": "string"
        },
        {
          "internalType": "string",
          "name": "_note",
          "type": "string"
        }
      ],
      "name": "setNote",
      "outputs": [],
      "payable": false,
      "stateMutability": "nonpayable",
      "type": "function"
    },
    {
      "constant": true,
      "inputs": [
        {
          "internalType": "string",
          "name": "_username",
          "type": "string"
        }
      ],
      "name": "getNote",
      "outputs": [
        {
          "internalType": "string",
          "name": "",
          "type": "string"
        }
      ],
      "payable": false,
      "stateMutability": "view",
      "type": "function"
    }
  ],
  "bytecode": "0x608060405234801561001057600080fd5b50610abc806100206000396000f3fe608060405234801561001057600080fd5b506004361061007d5760003560e01c8063a8cd0a801161005b578063a8cd0a8014610344578063b5cb15f714610362578063c196f2de14610380578063e83658541461043b5761007d565b80633d88c51514610082578063507ffba5146101b657806385b78d4a14610271575b600080fd5b61013b6004803603602081101561009857600080fd5b81019080803590602001906401000000008111156100b557600080fd5b8201836020820111156100c757600080fd5b803590602001918460018302840111640100000000831117156100e957600080fd5b91908080601f016020809104026020016040519081016040528093929190818152602001838380828437600081840152601f19601f82011690508083019250505050505050919291929050505061058d565b6040518080602001828103825283818151815260200191508051906020019080838360005b8381101561017b578082015181840152602081019050610160565b50505050905090810190601f1680156101a85780820380516001836020036101000a031916815260200191505b509250505060405180910390f35b61026f600480360360208110156101cc57600080fd5b81019080803590602001906401000000008111156101e957600080fd5b8201836020820111156101fb57600080fd5b8035906020019184600183028401116401000000008311171561021d57600080fd5b91908080601f016020809104026020016040519081016040528093929190818152602001838380828437600081840152601f19601f8201169050808301925050505050505091929192905050506106aa565b005b61032a6004803603602081101561028757600080fd5b81019080803590602001906401000000008111156102a457600080fd5b8201836020820111156102b657600080fd5b803590602001918460018302840111640100000000831117156102d857600080fd5b91908080601f016020809104026020016040519081016040528093929190818152602001838380828437600081840152601f19601f82011690508083019250505050505050919291929050505061078c565b604051808215151515815260200191505060405180910390f35b61034c6108f3565b6040518082815260200191505060405180910390f35b61036a610900565b6040518082815260200191505060405180910390f35b6104396004803603602081101561039657600080fd5b81019080803590602001906401000000008111156103b357600080fd5b8201836020820111156103c557600080fd5b803590602001918460018302840111640100000000831117156103e757600080fd5b91908080601f016020809104026020016040519081016040528093929190818152602001838380828437600081840152601f19601f82011690508083019250505050505050919291929050505061090c565b005b61058b6004803603604081101561045157600080fd5b810190808035906020019064010000000081111561046e57600080fd5b82018360208201111561048057600080fd5b803590602001918460018302840111640100000000831117156104a257600080fd5b91908080601f016020809104026020016040519081016040528093929190818152602001838380828437600081840152601f19601f8201169050808301925050505050505091929192908035906020019064010000000081111561050557600080fd5b82018360208201111561051757600080fd5b8035906020019184600183028401116401000000008311171561053957600080fd5b91908080601f016020809104026020016040519081016040528093929190818152602001838380828437600081840152601f19601f82011690508083019250505050505050919291929050505061094e565b005b60606105988261078c565b6105a157600080fd5b6002826040518082805190602001908083835b602083106105d757805182526020820191506020810190506020830392506105b4565b6001836020036101000a03801982511681845116808217855250505050505090500191505090815260200160405180910390208054600181600116156101000203166002900480601f01602080910402602001604051908101604052809291908181526020018280546001816001161561010002031660029004801561069e5780601f106106735761010080835404028352916020019161069e565b820191906000526020600020905b81548152906001019060200180831161068157829003601f168201915b50505050509050919050565b6106b38161078c565b156106bd57600080fd5b60008190806001815401808255809150509060018203906000526020600020016000909192909190915090805190602001906106fa9291906109e2565b5050604051806020016040528060008152506002826040518082805190602001908083835b60208310610742578051825260208201915060208101905060208303925061071f565b6001836020036101000a038019825116818451168082178552505050505050905001915050908152602001604051809103902090805190602001906107889291906109e2565b5050565b600080600090505b6000805490508110156108e857826003546004546040516020018084805190602001908083835b602083106107de57805182526020820191506020810190506020830392506107bb565b6001836020036101000a0380198251168184511680821785525050505050509050018381526020018281526020019350505050604051602081830303815290604052805190602001206000828154811061083457fe5b9060005260206000200160035460045460405160200180848054600181600116156101000203166002900480156108a25780601f106108805761010080835404028352918201916108a2565b820191906000526020600020905b81548152906001019060200180831161088e575b505083815260200182815260200193505050506040516020818303038152906040528051906020012014156108db5760019150506108ee565b8080600101915050610794565b50600090505b919050565b6000600180549050905090565b60008080549050905090565b60018190806001815401808255809150509060018203906000526020600020016000909192909190915090805190602001906109499291906109e2565b505050565b6109578261078c565b61096057600080fd5b806002836040518082805190602001908083835b602083106109975780518252602082019150602081019050602083039250610974565b6001836020036101000a038019825116818451168082178552505050505050905001915050908152602001604051809103902090805190602001906109dd9291906109e2565b505050565b828054600181600116156101000203166002900490600052602060002090601f016020900481019282601f10610a2357805160ff1916838001178555610a51565b82800160010185558215610a51579182015b82811115610a50578251825591602001919060010190610a35565b5b509050610a5e9190610a62565b5090565b610a8491905b80821115610a80576000816000905550600101610a68565b5090565b9056fea265627a7a72315820abe4600ce9706917397d364dbcd9465be4520fde847ed03a77ccf59136b31f6664736f6c63430005100032",
  "source": "// SPDX-License-Identifier: MIT\r\npragma solidity >=0.4.11;\r\n\r\ncontract Notes {\r\n\r\n\t/* 本地web3无法在一个函数中调用两次数组push，或两次mapping，且mapping对象不能是结构体\r\n\t// 笔记结构体\r\n\tstruct Note {\r\n\t\tstring time;\r\n\t\tstring content;\r\n\t}\r\n\t// 用户结构体\r\n\tstruct User {\r\n\t\taddress userAddress;\r\n\t\tstring username;\r\n\t\tstring note;\r\n\t}\r\n\t// 所有地址\r\n\taddress[] userAddresses;\r\n\t*/\r\n\r\n\t// 所有用户名\r\n\tstring[] usernames;\r\n\r\n\r\n\t// test\r\n\tstring[] testc;\r\n\tfunction getTest() public view returns (uint) {\r\n\t\treturn testc.length;\r\n\t}\r\n\tfunction setTest(string memory  _testc) public {\r\n\t\ttestc.push(_testc);\r\n\t}\r\n\t\r\n\r\n\t// 映射\r\n\t//mapping(address => string) userAddressMap;\r\n\tmapping(string => string) usernameMap;\r\n\r\n\t/*\r\n\tfunction isExistUserAddress(address _userAddress) public constant returns (bool) {\r\n\t\tfor(uint i = 0; i < usernames.length; i++){\r\n\t\t\tif(keccak256(usernames[i]) == keccak256(userAddressMap[_userAddress])) return true;\r\n\t\t}\r\n\t\treturn false;\r\n\t}\r\n\t*/\r\n\r\n\tuint256 _unixTimestamp;\r\n\tuint256 _timeExpired;\r\n\tfunction isExistUsername(string memory _username) public view returns (bool) {\r\n\t\tfor(uint i = 0; i < usernames.length; i++){\r\n\t\t\tif(keccak256(abi.encodePacked(usernames[i], _unixTimestamp, _timeExpired)) == keccak256(abi.encodePacked(_username, _unixTimestamp, _timeExpired))) {\r\n\t\t\t//if(keccak256(usernames[i]) == keccak256(_username)) {\r\n\t\t\t\treturn true;\r\n\t\t\t}\r\n\t\t}\r\n\t\treturn false;\r\n\t}\r\n\r\n\t/* disable for cannot add when register with web3\r\n\tfunction findUserAddressByUsername(string _username) public constant returns (address) {\r\n\t\trequire (isExistUsername(_username));\r\n\t\treturn usernameMap[_username].userAddress;\r\n\t}\r\n\t*/\r\n\r\n\tfunction createUser(string memory _username) public {\r\n\t\t//require (!isExistUserAddress(_userAddress));\r\n\t\trequire (!isExistUsername(_username));\r\n\r\n\t\t//userAddresses.push(_userAddress);\r\n\t\tusernames.push(_username);\r\n\r\n\t\t//userAddressMap[_userAddress] =  _username;\r\n\t\tusernameMap[_username] = \"\";\r\n\t}\r\n\r\n\tfunction getUserCount() public view returns (uint) {\r\n\t\treturn usernames.length;\r\n\t}\r\n\r\n\tfunction setNote(string memory _username, string memory _note) public {\r\n\t\trequire (isExistUsername(_username));\r\n\t\tusernameMap[_username] = _note;\r\n\t}\r\n\r\n\tfunction getNote(string memory _username) public view returns (string memory) {\r\n\t\trequire (isExistUsername(_username));\r\n\t\treturn usernameMap[_username];\r\n\t}\r\n}",
  "sourcePath": "H:\\WorkSpace_BlockChain\\etherNote\\contracts\\Notes.sol",
  "compiler": {
    "name": "solc",
    "version": "0.5.16+commit.9c3226ce.Emscripten.clang"
  },
  "schemaVersion": "3.4.13",
  "updatedAt": "2023-05-04T13:43:30.805Z",
  "networkType": "ethereum",
  "devdoc": {
    "methods": {}
  },
  "userdoc": {
    "methods": {}
  }
}